:100000000C9445080C9462080C9462080C94CD3151
:100010000C9462080C9462080C9462080C946208B8
:100020000C9462080C9462080C94DF1C0C949B1CCA
:100030000C946C270C9462080C9462080C9462086F
:100040000C9462080C9462080C9462080C94620888
:100050000C9462080C94B81D0C9462080C9462080D
:100060000C9462080C9462080C9462080C94620868
:100070000C9462080C9462080C9462080C94620858
:100080000C9462080C9462080C9462080C94620848
:100090000C9462080C9462080C9462080C94620838
:1000A0000C9462080C9462080C946208050109061D
:1000B000A1018506050719E029E715002501950826
:1000C000750181020507190029EF1500250195F03A
:1000D000750181020508190129059505750191022F
:1000E000950175039101C00660FF0961A1010962D4
:1000F000150026FF0095207508810209631500266A
:10010000FF00952075089102C005010906A10105AF
:100110000719E029E7150025019508750181029569
:1001200001750881010507190029FF150026FF0048
:100130009506750881000508190129051500250196
:10014000950575019102950175039101C0000000AC
:10015000000000000000000000000000000000009F
:10016000000000000000000000000000000000008F
:10017000007E0F00D4FFFFFFC700000078000000E2
:1001800000000000002A2B280000000000000000F2
:10019000000000000000000029000000002C1E34B8
:1001A00020212224342627252E362D3738271E1FBE
:1001B000202122232425263333362E37381F0405E9
:1001C000060708090A0B0C0D0E0F10111213141557
:1001D000161718191A1B1C1D2F3130232D35040535
:1001E000060708090A0B0C0D0E0F10111213141537
:1001F000161718191A1B1C1D2F3130354C202020C2
:10020000206162636465666768696A6B6C6D6E6FB6
:10021000707172737475767778797A3132333435D8
:100220003637383930524542545F2D3D5B5D5C2393
:100230003B27602C2E2F20202000DA0281FFD9F1ED
:10024000DB20A4A62EAF00A0C0D30000A1C8D3001D
:1002500000AED580A81F408D1420001E0F0500049D
:100260007F3F1F643214643214783C1E1E140A054A
:10027000000000000000000000000001010000007C
:10028000000000000000000000000000000000006E
:10029000000000000000000000000000000000005E
:1002A000000000000000000000000000000000004E
:1002B000000000000000000000000000000000003E
:1002C000000000000000000000000000000000002E
:1002D000000000000000000000000000000000001E
:1002E000000000000000000000000000000000000E
:1002F000FFFFFFFFFCFCFCF8F8F8F0F0F0F8F8FC6A
:10030000FFFFFFFFFFFFFFFFFFFFFFFFFFFFFFFFFD
:10031000FFFFFFFFFFFFFFFFFFFFFFFFFFFFFFFFED
:10032000FFFFFFFFFFFFFFFFFFFFFFFFFFFFFFFFDD
:10033000FFFFFFFFFFFFFFFFFFFFFFFFFFFFFFFFCD
:10034000FFFFFFFFFFFFFFFFFFFFFFFFFFFFFFFFBD
:10035000FFFFFFFFFFFFFFFFFFFFFFFFFFFFFFFFAD
:10036000FFFFFFFFFFFFFFFFFFFFFFFFFFFFFFFF9D
:1003700000000000000000000000000000060E0E5B
:10038000000000000000000000000000000000006D
:10039000000000000000000000000000000000005D
:1003A0000C1E0C0000000000000000000000000017
:1003B00000000000000000040E0E0000000000001D
:1003C000000000000000030F1F38317170303C1F27
:1003D0000F07010000000000000000000000000006
:1003E000000000000000000000000001010000000B
:1003F00000000000000000000000000000000000FD
:1004000000000000000000000000000000000000EC
:1004100000000000000000000000000000000000DC
:1004200000030301030302020604040C0C0818185D
:10043000103838100000000000000000000000012B
:10044000070F1F3F3F3F7F7E7E7C3C3C1C1C08000B
:1004500000000000000000000000003038380000FC
:10046000000000000000000000000000000000008C
:1004700000000000000000000000000000060E0E5A
:10048000000000000000000000000000000000006C
:10049000000000000000000000000000000000005C
:1004A0000C1E0C0000000000000000000000000016
:1004B00000000000000000040E0E0000000000001C
:1004C000000000000000030F1F38317170303C1F26
:1004D0000F07010000000000000000000000000005
:1004E000000000000000000000000001010000000A
:1004F0000000000000004060F3FFFFFFFFFFFF7FF0
:100500003F3F3F3F3F3F1E1F1F0F070703000000F5
:1005100000000000000000000000000000000000DB
:1005200000000000000000000000000000000000CB
:1005300000000000000000000000000000000000BB
:1005400000000000000000000000000000000000AB
:10055000000000000000000000000000000000009B
:10056000000000000000000000000000000000008B
:10057000FFFFFFFF3F1C080000000000000000001C
:10058000000000000000000000808080C0E0F0F06B
:10059000FCFEFFFFFFFFFFFFFFFFFFFFFFFFFFFF6F
:1005A000FFFFFFFFFFFFFFFFFFFFFFFFFFFFFFFF5B
:1005B000FFFFFFFFFFFFFFFFFFFFFFFFFFFFFFFF4B
:1005C000FFFFFFFFFFFFFFFFFFFFFFFFFFFFFFFF3B
:1005D000FFFFFFFFFFFFFFFFFFFFFFFFFFFFFFFF2B
:1005E000FFFFFFFFFFFFFFFFFFFFFFFFFFFFFFFF1B
:1005F00000000000000000000000000000000000FB
:1006000000000000000003070F0F1F3F3F3F7F7FE8
:100610007F7C7C7C7F7F7F3F3F1F1F0F0707010090
:1006200000000000000000000000000000000000CA
:1006300000000000000000000000000000000000BA
:1006400000000000000080C0E070B8383C7CFCFC7A
:10065000FCFEFE060000000000000000000000009C
:100660000000000000000000000040C0E0C00000EA
:10067000000000000000000000000000000000007A
:10068000000000000000000000000000000000006A
:100690000E0E0E020203010101030303060C1830C3
:1006A000E0C0C0800000000000000000000000006A
:1006B000000000000000000000000000000000FC3E
:1006C000FFFFFFFFFFFF81000000000000000000AF
:1006D000000000000000000000000000000000001A
:1006E000000000000000000000000000000000000A
:1006F00000000000000000000000000000000000FA
:1007000000000000000003070F0F1F3F3F3F7F7FE7
:100710007F7C7C7C7F7F7F3F3F1F1F0F070701008F
:1007200000000000000000000000000000000000C9
:1007300000000000000000000000000000000000B9
:1007400000000000000080C0E070B8383C7CFCFC79
:10075000FCFEFE060000000000000000000000009B
:100760000000000000000000000040C0E0C00000E9
:100770000000000000000307EFFFFFFFFFFFFFFF87
:10078000FEFEFEFEFE7E3E7CFCF8F0F0E080000007
:100790000000000000000000000000000000000059
:1007A0000000000000000000000000000000000049
:1007B0000000000000000000000000000000000039
:1007C0000000000000000000000000000000000029
:1007D0000000000000000000000000000000000019
:1007E0000000000000000000000000000000000009
:1007F000FFFFFFFFFE1C08000000000000000000DB
:100800000000000000000000800000000103070F4E
:100810001F3FFFFFFFFFFFFFFFFFFFFFFFFFFFFF88
:10082000FFFFFFFFFFFFFFFFFFFFFFFFFFFFFFFFD8
:10083000FFFFFFFFFFFFFFFFFFFFFFFFFFFFFFFFC8
:10084000FFFFFFFFFFFFFFFFFFFFFFFFFFFFFFFFB8
:10085000FFFFFFFFFFFFFFFFFFFFFFFFFFFFFFFFA8
:10086000FFFFFFFFFFFFFFFFFFFFFFFFFFFFFFFF98
:100870000000000000000000000000000000000078
:100880000000011F7FFFFFFFFFFFFFFFFFFFFFE0F3
:10089000C000000080C0E0F1FFFFFFFFFFFFFFFF8F
:1008A0003F0F0000000000000000000000000000FA
:1008B00000000000000000001838380000030301A9
:1008C0000000000000000000000000000000000028
:1008D0000000000000000000000000000000000018
:1008E0000000000000000000000000000000000008
:1008F00000000000000000000007060705030000DC
:1009000000010303020303010000000000000000D7
:10091000000000000000000080C0C0C04060202037
:10092000383F180000000000000000000000000038
:1009300000000000000000030303000000000000AE
:100940000080C0E0E0E0F070300000000000000037
:100950000000000000000000000000000000010393
:100960000300000000000000000000000000000084
:100970000000000000000000000000000000000077
:100980000000011F7FFFFFFFFFFFFFFFFFFFFFE0F2
:10099000C000000080C0E0F1FFFFFFFFFFFFFFFF8E
:1009A0003F0F0000000000000000000000000000F9
:1009B00000000000000000001838380000030301A8
:1009C0000000000000000000000000000000000027
:1009D0000000000000000000000000000000000017
:1009E0000000000000000000000000000000000007
:1009F0000000000000000000808080C0C0C08000B7
:100A000000000000000000000000000000000000E6
:100A100000000000000000000000000000000000D6
:100A200000000000000000000000000000000000C6
:100A300000000000000000000000000000000000B6
:100A400000000000000000000000000000000000A6
:100A50000000000000000000000000000000000096
:100A60000000000000000000000000000000000086
:100A7000FFFFFFFF1F1F0F0F0F0F0F0F0F0F0F0FA6
:100A80003F7FFFFFFFFFFFFFFFFFFFFFFFFFFFFFB6
:100A9000FFFFFFFFFFFFFFFFFFFFFFFFFFFFFFFF66
:100AA000FFFFFFFFFFFFFFFFFFFFFFFFFFFFFFFF56
:100AB000FFFFFFFFFFFFFFFFFFFFFFFFFFFFFFFF46
:100AC000FFFFFFFFFFFFFFFFFFFFFFFFFFFFFFFF36
:100AD000FFFFFFFFFFFFFFFFFFFFFFFFFFFFFFFF26
:100AE000FFFFFFFFFFFFFFFFFFFFFFFFFFFFFFFF16
:100AF00000000000000000000000000000000000F6
:100B00000000C0FCFFFFFFE1C0C0C080808038381B
:100B100078787B7F7F7FFFFFFFFFFFC303031FFF0B
:100B2000FFFC0000000000000000000000000000CA
:100B300000000000000000000000000000808000B5
:100B400000000000000000000000000000000000A5
:100B50000000000000000000000000007070600055
:100B60000000000000000000000000000000000085
:100B700000000000000000000080C0C080000000F5
:100B8000F8FCE6B23EBEFEECF800000000000000FB
:100B90000000000000000000000000000000000055
:100BA00000FFFF0200000000000000000000000045
:100BB000000000000000008080000000000000C075
:100BC000E0C0000000000000000000000000000085
:100BD000000000000000000000000000000080C0D5
:100BE0008080000000000000000000000000000005
:100BF00000000000000000000000000000000000F5
:100C00000000C0FCFFFFFFE1C0C0C080808038381A
:100C100078787B7F7F7FFFFFFFFFFFC303031FFF0A
:100C2000FFFC0000000000000000000000000000C9
:100C300000000000000000000000000000808000B4
:100C400000000000000000000000000000000000A4
:100C50000000000000000000000000007070600054
:100C60000000000000000000000000000000000084
:100C7000000101010101010101010202020202025F
:100C80000202020303030303030303040404040432
:100C900004040505050505060606060607070707F9
:100CA0000708080808090909090A0A0A0B0B0B0CAE
:100CB0000C0C0D0D0D0E0E0E0F0F0F10101111114B
:100CC00012121313141415151616171718181919CC
:100CD0001A1A1B1B1C1D1D1E1E1F20202122222331
:100CE0002424252626272829292A2B2C2D2D2E2F72
:100CF00030313232333435363738393A3B3C3D3E89
:100D00003F404142434445464748494A4C4D4E4F77
:100D100050515354555658595A5B5D5E5F61626439
:100D2000656668696B6C6D6F7072737577787A7BC6
:100D30007D7E8082838587888A8C8E8F919395961D
:100D4000989A9C9EA0A2A3A5A7A9ABADAFB1B3B53D
:100D5000B7BABCBEC0C2C4C6C9CBCDCFD1D4D6D819
:100D6000DBDDDFE2E4E7E9EBEEF0F3F5F8FAFDFFB7
:100D7000FFAA7F55402223252628292A2C2D2F30F3
:100D800032333536383A3B3D3E4042434547494A87
:100D90004C4E5051535557595A5C5E6062646668B8
:100DA000696B6D6F71737577797B7D7F81838587C3
:100DB000898A8C8E90929496989A9C9E9FA1A3A5C6
:100DC000A7A8AAACAEAFB1B3B4B6B8B9BBBCBEBFEE
:100DD000C1C2C3C5C6C7C9CACBCCCDCED0D1D2D271
:100DE000D3D4D5D6D7D7D8D9D9DADADBDBDBDCDC7C
:100DF000DCDCDCDDDDDDDDDCDCDCDCDCDBDBDBDA34
:100E0000DAD9D9D8D7D7D6D5D4D3D2D2D1D0CECD9E
:100E1000CCCBCAC9C7C6C5C3C2C1BFBEBCBBB9B8AB
:100E2000B6B4B3B1AFAEACAAA8A7A5A3A19F9E9C30
:100E30009A98969492908E8C8A89878583817F7DFB
:100E40007B79777573716F6D6B6968666462605EDC
:100E50005C5A5957555351504E4C4A4947454342A5
:100E6000403E3D3B3A3836353332302F2D2C2A293F
:100E7000282625232200AF00AE2B0014001A0008FC
:100E80000015001700E10004001600070009000A21
:100E900000E0001D001B0006001900050000000016
:100EA000000000E300777C2C002A00130012000CE5
:100EB0000018001C00340033000F000E000D000B62
:100EC0000029003800370036001000110000000033
:100ED000000000E600787C28002B001E001F002088
:100EE0000021002200E100000000000000000000DE
:100EF00000E0000000000000000000000000000012
:100F0000000000E30001002C002A00270026002535
:100F10000024002300000000004F00520051005048
:100F200000000000000000000000000000000000C1
:100F3000000000E600010028002B001E021F022016
:100F40000221022202E10000000000000000000077
:100F500000E00000000000000000000000000000B1
:100F6000000000E30001002C002A002702260225D1
:100F700002240223023500310030002F002E002D04
:100F8000003502310230022F022E022D0200000035
:100F9000000000E60001002800007C0000000000C6
:100FA00000000000002078237825782778000000D2
:100FB00000217824782678287800000000000000BE
:100FC000000000E30001002C000000000000000011
:100FD0000000000000000000000000000000000011
:100FE0000000000000000000000000000000000001
:100FF000000000E6000100280009025B0003010078
:10100000A0FA0904000001030101000921110100F7
:1010100001224400070581030800010904010002C0
:1010200003000000092111010001222200070582AE
:101030000320000107050303200001090402000149
:1010400003000000092111010001223B0007058473
:1010500003200001120100020000000853460100B5
:10106000010001020001140343006F0072006E00D2
:10107000650020004A0053004D00000008034A00AC
:1010800053004D0000000403090411241FBECFEFDC
:10109000DAE0DEBFCDBF27E0A2EEB1E001C01D92D5
:1010A000A03BB207E1F711E0A0E0B1E0ECE5FAE621
:1010B00002C005900D92A23EB107D9F70E94932776
:1010C0000C94EE340C940000CF93DF932091AE0784
:1010D0003091AF072E5A3540A90140585F4F41303B
:1010E0005240B0F040E052E0421B530B6091AC051F
:1010F0007091AD05420F531FC1E0D0E024173507B2
:1011000050F07093AD056093AC05DF91CF910895D9
:1011100040E850E0EBCFFC018191D901A255BA4FD4
:101120009C91891781F08C93C901A5E096958795CC
:10113000AA95E1F7DE0102C0AA0FBB1F8A95E2F76C
:10114000CD016A2B792B2F5F3F4FCF01D7CF9091E5
:10115000AB05899FC0011124811522E0920714F08C
:1011600090E080E082559A4F9093AF078093AE074E
:101170000895482F2091AA059091710557E02913F1
:1011800002C080E0089530E0529FF001539FF00DBF
:101190001124EE58FA4F8181681306C080814813EC
:1011A00003C085818111EECF2F5F3F4F2770E7CFBE
:1011B000E8EDF0E080818E7F80831092E200109253
:1011C000DA001092E100A0EEB0E08C9181608C9387
:1011D00080818F77808319BCA7EDB0E08C918E7FE2
:1011E0008C9380818F7E8083109259050895209181
:1011F000E4003091E50095E6A9012091EC00822FF2
:10120000817020FF06C08091E80080FF06C080E06A
:1012100008952091E80022FD1AC080916705882377
:1012200089F0853089F08091EB0085FD0FC0209119
:10123000E4003091E50042175307F9F29150E1F6CE
:1012400084E0089582E0089583E0089581E00895A0
:101250008091690587FF13C08091E80082FF06C076
:101260008091E8008B778093E80004C08091670547
:101270008111F2CF0895809167058823D9F3809179
:10128000E80080FFF8CF8091E8008E77ECCF982FB0
:101290009093E900242F762F50E0891731F0709158
:1012A000EC002091ED005091F00021FD07C09F5F00
:1012B000973071F78093E90081E008953091EB0059
:1012C0003E7F3093EB003091ED003D7F3093ED0099
:1012D0003091EB0031603093EB007093EC00209381
:1012E000ED005093F0002091EE0027FDE0CF80E06C
:1012F0000895B0E0A0E0EFE7F9E00C940733C8ED03
:10130000D0E088818F7E8883E7EDF0E08081816086
:10131000808384E082BF81E08093590588818E7F3D
:10132000888302EE10E0F80110821092DA0081EE5C
:10133000C82ED12CF601108288818F77888388810E
:101340008068888388818F7D888319BC10926705A7
:1013500010926805109266051092650590EEE92ED0
:10136000F12CF70180818B7F808388818160888365
:1013700042E060E080E00E944709F60180818E7FB4
:101380008083F80180818160808380818860808390
:10139000F70180818E7F8083888180618883CDB7CB
:1013A000DEB7E8E00C942333FC0180916F05909147
:1013B000700586179707A0F06115710529F49091C3
:1013C000E8009E779093E80090E06115710551F474
:1013D000911108C08091E80082FF34C080E0089538
:1013E000BC01F2CF809167058823C1F18530C1F13E
:1013F0008091E80083FD30C08091E80082FDEACF53
:101400008091E80080FFE1CF8091F3002091F2000D
:10141000382F6115710519F02830310558F091E029
:101420002830310509F090E02091E8002E772093D4
:10143000E800CBCF81918093F100615071092F5F5B
:101440003F4FE7CF80916705882341F0853041F019
:101450008091E80083FFBECF81E0089582E0089587
:1014600083E0089508950895089580915C05089596
:1014700087E797E7909301088093000888E19AE056
:101480000FB6F894A895809360000FBE909360000B
:10149000FFCFCF92DF92EF92FF922FB7F894C090D8
:1014A0005505D0905605E0905705F09058052FBF90
:1014B000A7019601261B370B480B590BCA01B9012E
:1014C000FF90EF90DF90CF9008952FB7F894609140
:1014D00055057091560580915705909158052FBF7D
:1014E0000895909193019923D1F09091520597FF1F
:1014F00016C0E82FE695E695E695EE31E0F4F0E0CB
:10150000E451FE4F282F277081E090E001C0880F42
:101510002A95EAF780959281892382830895E6EEE1
:10152000F1E09191891303C0DF0111971C9291E0C2
:10153000EC3EF907B1F7089580914E05882359F0E4
:10154000E0915005F0915105309729F00190F0811C
:10155000E02D0995089580E00895FC01680F791F3A
:101560008FEF91E32191822728E030E087FF09C0C7
:10157000880F892721503109C9F7E617F70791F736
:101580000895880FF7CFFA01811101C0FB01099579
:101590000895EEE8F3E011828281846082830895E9
:1015A00080914405982F9C7F61F4837084608093C0
:1015B000440580914705843618F083E680934705FB
:1015C00008958C3AB0F38370886AF1CFAF92BF92DE
:1015D000DF92EF92FF920F931F93CF93DF93182F19
:1015E000062FE901443608F043E6E42FF0E0E05925
:1015F000F34F011110C0E4915E2F4E2F4983E88311
:101600005A83DF91CF911F910F91FF90EF90DF9060
:10161000BF90AF900895202F30E04491D42EE42E57
:10162000F12C56E0159FC0011124EFEFF0E0BF014F
:101630000E94E932812F90E0880F991F55E5569F4F
:10164000D001579FB00D11248A1B9B0B982F990F27
:10165000890F5F01A21AB30AAE9CD001AF9CB00DF6
:10166000BE9CB00D11245B2F089F80011124012F17
:1016700011275F01A01AB10AAE9C8001AF9C100D2A
:10168000BE9C100D11245F01A81AB108A29EC001D2
:10169000A39E900DB29E900D1124892F9927E81BCF
:1016A000F90BEE9DC001EF9D900DFE9D900D112454
:1016B000E92F62307105A1F050F46115710509F44C
:1016C0009DCF6130710581F0EB2F512F97CF6430A2
:1016D000710569F080F06630710509F48FCFF4CFA1
:1016E000E42F4B2F592F8ACFE42F412F87CFEB2F99
:1016F000542F492F83CF4B2F5D2DE12F7FCF80E0DB
:10170000089563E070E082E892E00E94AD0A909153
:101710008102891318C0E0918202ED30A4F488E0C0
:10172000E802F0011124E85EFE4F0680F781E02D0B
:10173000309749F025EA32E04091840265E872E092
:101740008091830209950895EBE5F2E080A58093EE
:10175000600181A5809373010895F894E82FE295C4
:10176000EF70F0E031A1282F2F7081E090E001C0F0
:10177000880F2A95EAF7982F9095932391A392A129
:10178000892B82A3789408950F931F9380914E051F
:10179000882329F00E94650A1F910F9108950E94E5
:1017A000650A0091ED021091EE022091EF02309156
:1017B000F002600F711F821F931FEECF90915205B0
:1017C00092FF10C041E0282F2471243009F040E03E
:1017D00031E0282F2871283009F030E0431711F04C
:1017E0002CE0822793FF10C041E0282F2471243180
:1017F00009F040E031E0282F2871283109F030E06D
:10180000431711F02CE082273091530530FF10C0B0
:1018100051E0282F2171213009F050E041E0282FBC
:101820002871283009F040E0541711F029E0822790
:1018300031FF10C041E0282F2171213109F040E033
:1018400031E0282F2871283109F030E0431711F0DA
:1018500029E0822794FD877E089582389105B9F1A9
:10186000B0F48133910509F47DC048F489329105C3
:1018700009F46DC08A32910509F47BC0089585335F
:10188000910509F45FC08933910509F10895833EFC
:101890009105D9F138F4803E910529F1823E9105F8
:1018A00079F10895863E9105D9F1873E910509F4B5
:1018B0003EC0843E910541F52091530521FF24C08F
:1018C0008091520584FD19C087EE90E00895209123
:1018D0005205237009F05AC02091530523FF14C00C
:1018E00089E290E008952091520520FD38C03091A2
:1018F000530530FF09C024FF43C090E080E0089505
:101900002091520522FDF7CF08952091520522FD26
:101910003AC03091530530FD39C024FFF5CFEDCFEB
:101920002091520523FFF0CF24FDE7CFCDCF2091AA
:10193000520523FD2EC03091530531FFEECF84EECA
:1019400090E008952091520525FFDECFC9CF209168
:10195000520525FD21C02091530523FFD5CF89E3F2
:1019600090E0D2CF2091520526FFCECF8AE290E0C0
:1019700008952091520526FFC7CF81E390E0089596
:1019800083EE90E0089582EE90E0089580EE90E07E
:10199000089586EE90E0089585E390E008951F9302
:1019A000CF93DF930E942D0CEC01C11582E5D8077F
:1019B00008F03FC0C11580E5D80708F0BCC0C83E9C
:1019C000D105C0F4C03ED10580F4C53AD10548F434
:1019D000C430D10550F4C130D10539F0D0E0C0E0B9
:1019E00004C0CD3CD105D0F3D065CE01DF91CF91BD
:1019F0001F910895C11580E4D80708F06BC0C11588
:101A000080E2D80708F0B1C0C11581E0D80730F3F3
:101A10008D2F0E94DE0B182FCE0199270E942D0CCE
:101A2000C12FD0E0DC2FCC27CC27DF71C82BD92BDE
:101A3000DCCFC03682E5D807F0F4C03482E5D807A1
:101A400008F059C0C03282E5D80708F04DC02C2FED
:101A50002695269580E2289F900111248C2F837073
:101A6000C1E0D0E002C0CC0FDD1F8A95E2F7C22BA7
:101A7000D32BDD68BACFC03C82E5D807F8F4C03A72
:101A800082E5D80708F04CC0C03882E5D80708F0D6
:101A9000A5CF2C2F26952695277080E2289F9001B0
:101AA00011248C2F8370C1E0D0E002C0CC0FDD1F69
:101AB0008A95E2F7C22BD32BDA6897CFC03E82E536
:101AC000D80708F08BCFDC2FCC27CC27DF71C06F75
:101AD000D06A8BCFCE0199270E942D0CCC27DF70C6
:101AE000C82BD92BD06A81CFCF71D0E0DC2FCC2787
:101AF000C16FD06A7ACF2C2F26952695277080E269
:101B0000289F900111248C2F8370C1E0D0E002C087
:101B1000CC0FDD1F8A95E2F7C22BD32BDC6865CF93
:101B20008C2F8F710E94DE0BC82FD0E0DC2FCC27CA
:101B3000CC27DF715ACF8C2F8F710E94DE0B55E0BE
:101B4000D695C7955A95E1F7CF70D0E0DC2FCC271A
:101B5000282F30E084FF05C044E0220F331F4A9550
:101B6000E1F7C22BD32BD06940CF8D2F8F710E940C
:101B7000DE0B182FCE0199270E942D0CC12FD0E02B
:101B8000DC2FCC27CC27DF71C82BD92BD0622DCFEF
:101B90008091AA0590917105981301C008958F5FF7
:101BA0008770FACF292F983078F5863068F590E065
:101BB00036E0239F800D911D1124682F677023E06C
:101BC000969587952A95E1F7FC01EE0FFF1FE80F28
:101BD000F91FE45FFD4F50E040E080E0219130E0EC
:101BE000062E02C0369527950A94E2F72170332716
:101BF000042E01C0220F0A94EAF7822B4F5F5F4F39
:101C00004330510559F7089580E00895292F983001
:101C100098F5863088F590E036E0239F800D911D81
:101C20001124282F277041E001C0440F2A95EAF7BC
:101C300023E0969587952A95E1F7FC01EE0FFF1FAB
:101C4000E80FF91FE45FFD4F30E020E070E05191B4
:101C5000DF011197CB01022E02C0969587950A9459
:101C6000E2F7817081958527842385278C932F5FE8
:101C70003F4F2330310559F7089580934C03089561
:101C800090914C0321E030E0F90101C0EE0F8A95FC
:101C9000EAF7D90102C0AA0FBB1F6A95E2F7EA2B47
:101CA00001C0220F4A95EAF7892F8E23E81305C059
:101CB000292B822F0E943D0E089520952923F9CFCC
:101CC00021E030E001C0220F8A95EAF7209580914B
:101CD0004C0382230E943D0E089521E030E001C0B4
:101CE000220F8A95EAF780914C03822B0E943D0EC9
:101CF000089580934E020895EEEAF5E080E092E0C8
:101D0000DF019C011D9221503040E1F7F093AF07B5
:101D1000E093AE078FEF9FEF9093AD058093AC05F6
:101D2000089580915A0590914502892B90919301D5
:101D3000992349F19091520597FF25C08093ED01B9
:101D400040E250E065E272E08CEE91E00E941D34CA
:101D5000892BC1F080E2ECEEF1E0A5E2B2E0019067
:101D60000D928A95E1F7E0915005F0915105309779
:101D700049F086E08093EC010480F581E02D8CEE43
:101D800091E0099508958093E40148E050E066E40D
:101D900072E084EE91E00E941D34892B99F388E073
:101DA000E4EEF1E0A6E4B2E001900D928A95E1F74D
:101DB000E0915005F0915105309721F30280F381B5
:101DC000E02D84EE91E0DDCF80919301882381F0B6
:101DD0008091520587FF0CC0EEEEF1E08EE1DF014D
:101DE0001D928A95E9F7109245020E94910E08957E
:101DF000E6EEF1E086E0F3CFAAE2B0E0E2E0FFE059
:101E00000C940C3389E695E02091F100DC012D93D0
:101E1000CD01B5E081379B07B9F780916A05833022
:101E200009F472C0B8F4813009F449C0823009F471
:101E3000B5C08091E80083FF8DC2809169059091C3
:101E40006A059A3008F086C2E92FF0E0E051FB4CB9
:101E50000C9462338A3009F490C08B3009F471C05D
:101E6000893039F780916905813219F780916D05C4
:101E700090916E05009711F00297D9F68091E800D5
:101E8000877F8093E8008091E80082FF38C09091BE
:101E9000F3008091F200029731F48091F1008130DB
:101EA00011F0863021F48091F10080935C058091DF
:101EB000E8008B778093E8000E942809BACF8091D0
:101EC0006905813A09F0B5CF8091E800877F80935A
:101ED000E80080916D0590916E05892B61F468E0B2
:101EE0008DE595E070E00E94D4098091E8008B7741
:101EF0008093E8009ECF60E090E080E0F3CF809197
:101F000067058111C0CF95CF80916905813A09F0AD
:101F100090CF80916D0590916E05892B09F089CF46
:101F20008091E800877F8093E8008091E80080FF3F
:101F3000FCCF809193018093F1008091E8008E772F
:101F4000B9CF80916905813209F073CF80916D0519
:101F500090916E05892B09F06CCF8091E800877F06
:101F60008093E8000E94280980916B05809393017B
:101F700010925A050E94E40E5CCF8091690581326F
:101F800009F057CF8091E800877F8093E8000E9496
:101F9000280980916C0580935B054BCF8091690582
:101FA000813A09F046CF8091E800877F8093E8006E
:101FB0008091E80080FFFCCF80915B05BCCF80382A
:101FC00099F0823809F0C6C180916D058F70873015
:101FD00008F0C0C18093E9008091EB0085FB882761
:101FE00080F91092E90006C0809165059091660520
:101FF000911182609091E800977F9093E800809320
:10200000F1001092F1008091E8008E779FC1882343
:1020100009F48DC1823009F09DC180916B05811159
:1020200090C180916D058F702FEF280F263008F03A
:1020300091C18093E9002091EB0020FF82C1933091
:1020400031F48091EB0080628093EB007AC1909133
:10205000EB0090619093EB0021E030E001C0220F93
:102060008A95EAF72093EA001092EA008091EB004B
:102070008860EACF81116EC110916B051F77809146
:10208000E3008078812B8093E3008091E800877FD4
:102090008093E8000E9428098091E80080FFFCCF2F
:1020A0008091E30080688093E30082E0111183E077
:1020B000809367054FC18058823008F04BC1209152
:1020C0006B0530916C052C3DE3E03E07A1F583E004
:1020D0008A838AE289834FB7F894DE01139620E061
:1020E0003EE051E2E32FF0E050935700E49120FFEF
:1020F00003C0E295EF703F5FEF708E2F90E0EA3003
:10210000C0F0C7968D939D932F5F243159F74FBF31
:102110008091E800877F8093E8006AE270E0CE015A
:1021200001960E94D4098091E8008B778093E800A3
:1021300011C1C096E7CF80916D0590916E05432F38
:1021400055274330510509F44AC078F5413051050F
:1021500009F47AC08BE590E0E9EFFFE042305105E9
:1021600009F0F8C02091E800277F2093E800209133
:102170006F05309170058217930708F49C0140E0C9
:102180002115310509F065C0411163C08091E80057
:1021900082FDC9CF80916705882329F2853019F225
:1021A0008091E80083FFF2CFBECF4132510509F4A0
:1021B0003CC04232510509F0CDC08330910508F092
:1021C000C9C0FC01EE0FFF1FEA52FE4F0190F081E3
:1021D000E02D8D529E4FDC018C9190E01AC0332788
:1021E00021303105D1F02115310561F02230310562
:1021F00009F0B0C0E6E6F0E1E4918E2F90E0E6E66B
:10220000F0E107C0E6E8F0E1E4918E2F90E0E6E827
:10221000F0E1009709F49EC0A5CFECE7F0E1E4916E
:102220008E2F90E0ECE7F0E1F4CF8330910508F0D9
:1022300091C0880F991FFC01E452FE4F0190F0817C
:10224000E02D89E090E08ECF82E190E0E4E5F0E1DE
:1022500089CF80916705882309F465CF853009F41B
:1022600062CF8091E80083FD5ECF8091E80082FD1F
:102270008DCF8091E80080FF83CF9091F300809113
:10228000F2002115310519F08830910550F041E038
:10229000089709F040E08091E8008E778093E8008D
:1022A0006FCF44914093F10031962150310901964E
:1022B000E8CF803809F04EC08091E800877F809396
:1022C000E800809168058093F1009DCE811142C0A5
:1022D00010916B051230F0F58091E800877F8093B4
:1022E000E800109368050E942809112311F084E08A
:1022F00005C08091E30087FDFACF81E080936705F8
:1023000042E061EC81E00E94470942E261EC84E036
:102310000E94470942E261EC82E00E94470942E2E2
:1023200060EC83E00E9447098091670513C08091AB
:102330006B05813079F481E0933009F080E080937F
:1023400066051092E9008091E800877F8093E8009D
:102350000E9428098091E80083FF0AC08091E8006C
:10236000877F8093E8008091EB0080628093EB0090
:10237000AA96E3E00C942833882341F0809590914D
:102380005A05892380935A050E94910E0895882347
:1023900039F090915A05982B90935A050E94910E0E
:1023A0000895882341F09CEF980F913A28F40E94F9
:1023B000710A0E94910E089590E2980F9830D8F714
:1023C000877021E030E0A90102C0440F551F8A95B3
:1023D000E2F7CA01809590915A05892380935A05A6
:1023E000E8CFCF93C82F882309F440C08CEF8C0F1F
:1023F000813A08F062C0809193018823C9F18091ED
:10240000520587FF35C0EC2FE695E695E695F0E09E
:10241000E451FE4F828190E04C2F477021E030E084
:1024200002C0220F331F4A95E2F782239323892BA0
:1024300051F08C2F0E94710A0E94910E22C080914F
:10244000520587FF22C0EC2FE695E695E695F0E071
:10245000E451FE4FC77021E030E001C0220FCA9561
:10246000EAF78281822B82830E94910ECF91089598
:10247000E6EEF1E08191C817E1F281E0EC3EF80769
:10248000C9F7809193018111DACFA6EEB1E0EFEFA9
:1024900080E09D91C91741F3EF3F19F4911101C0FC
:1024A000E82F8F5F8630A9F7EF3FF1F20E2E000C78
:1024B000FF0BEC51FE4FC283D7CF80E28C0F8830E8
:1024C000A8F6C77021E030E001C0220FCA95EAF7F4
:1024D00080915A05822B80935A05C6CF0F931F9384
:1024E000CF93DF938B01EA0190916705943061F5FA
:1024F0008093E9008FEF9091E800815095FD06C030
:1025000095ED9A95F1F700008111F5CF8091E800E3
:1025100085FF1AC00E94F708811111C08091E80060
:1025200085FD06C08091E8008E778093E800F2CFA9
:10253000F80181918F018093F100219779F78091C3
:10254000E8008E778093E800DF91CF911F910F9183
:10255000089540E250E0BC0184E00E946E120895AC
:10256000CF93DF93EC0148E050E0BC0181E00E9492
:102570006E1288E0FE01ADE5B5E001900D928A95FE
:10258000E1F7DF91CF91089560918F01809144052B
:1025900080FF20C080918E0143E0849FC001112400
:1025A0008C569C4F539A2BB1277F3BB138605FB755
:1025B000F894FC01649FE00DF11D1124BF01681720
:1025C0007907D1F45FBF8FE594E00197F1F700C080
:1025D00000000895809190019091910123E0829FE5
:1025E000F0011124EC56FC4F8917A0F611821082DD
:1025F00012828F5F3396F8CFFC014191CF01E8E062
:102600003BB9000000C047FF2BB9440F000000C0D9
:1026100000C000C02BB900C0EA9591F7D0CF0F934E
:102620001F93CF93DF93EC0110E000E090919201B3
:102630009017110609F06CF40E94C4128C8190E08E
:102640000196817099278C83DF91CF911F910F9113
:10265000089520919001A801420F511D9A01220F67
:10266000331F240F351F2C563C4F4C81609146057B
:102670008091450596959017110651F04CF0442332
:1026800049F0409147050E94E60A0F5F1F4FCECFE9
:102690004423B9F340E0F7CFB0E0A0E0E2E5F3E196
:1026A0000C940333EC014C81042F10E09801D80105
:1026B0000E94DF349B01AC010E94AA344B015C01F3
:1026C000E0E2F0E0E01BF10BA5E5B0E0AC019B011E
:1026D0000E94AA346B017C019F01DF010E946F33CD
:1026E0009B01AC010E94B5349B01AC01280D391D42
:1026F0004A1D5B1DC701B6010E94BD34F22E822F18
:1027000090E039E23F1520F143E0249F900111242D
:1027100035952795122F109500E085E5E82EEF18E6
:1027200080919201081718F10E94C4129C8181E0E7
:10273000992319F0903219F48FEF80938D018091D5
:102740008D01890F8C83CDB7DEB7ECE00C941F337D
:1027500025E530E0B901681B790B9B01220F331F7F
:10276000260F371F37FFD4CF2F5F3F4FD1CF8E2D8E
:1027700001FD8F2D20919001622F600F7727771F29
:102780009B01220F331F260F371F2C563C4F412F22
:10279000609146050E94E60A0F5FC2CFEF92FF925A
:1027A0000F931F93CF93DF93EC018C81811109C0AC
:1027B00081E08C831092920392E090938C0180933D
:1027C0008B01809190019091910123E0829FF00113
:1027D0001124EC56FC4F891758F110E003E060918A
:1027E0009201161758F10E94C41280918B0120911A
:1027F0009203280F2093920390918C01980F90934D
:102800008C01191654F4022E000C330B40919201E6
:102810004150550B2417350734F0819580938B0177
:10282000813009F41C82CDB7DEB7E6E00C94253385
:102830001182108212828F5F3396CDCFE12EF12C60
:1028400070E0C7010E944E3320919001820F482F03
:1028500050E020919203022E000C330BE216F30697
:10286000BCF020918C01022E000C330B2E153F057D
:102870007CF0809F900111242C563C4F40914705DD
:1028800060914605809145050E94E60A1F5FA7CF2B
:10289000FA01EE0FFF1FE40FF51FEC56FC4F1182FB
:1028A00010821282F3CFB0E0A0E0E9E5F4E10C94ED
:1028B0000333EC018A81BB24BA9480FD02C0BB249F
:1028C000B394A09092018C81811109C081E0B8126B
:1028D00020C08FEF8A0D8093910381E08C83F12CCF
:1028E000E12C46E3942EEA14B8F00E94C4128091C1
:1028F000910391E0B91257C0811150C080919201AB
:102900008150809391031C82CDB7DEB7ECE00C942C
:102910001F3310929103E1CF009190010E0D1F2DF6
:10292000111DC801880F991F080F191F0C561C4F45
:10293000F80111821082128234E0C32ED12C812C36
:1029400080919103880D87332CF1692D0E944033CB
:10295000892F082E000C990B8E159F0591F48091FC
:1029600047058C9DA0018D9D500D112455954795CF
:1029700055954795980160914605809145050E94BF
:10298000E60A8B0CF1E0CF1AD108D1F68FEFE81AE6
:10299000F80AA9CF87FFDDCF8A0DDBCF8150809366
:1029A0009103BC82B1CF90E001966091920170E0FA
:1029B0000E944E33809391038C83A6CFEF92FF92B7
:1029C0001F93CF93DF93EC0110E0EE24EA94F12CF7
:1029D00060919201161770F00E94C4129A818C8146
:1029E00090FF27C08F5F8C83DF91CF911F91FF9065
:1029F000EF90089520919001422F410F5527551FC8
:102A0000CA019A01220F331F280F391F2C563C4F41
:102A100070E0C7010E944E33962F8C81409147058C
:102A200060914605199F800D11240E94E60A1F5FE0
:102A3000CFCF8150D8CF9091440590FF0EC0909198
:102A400090012091910133E0939FF0011124EC5605
:102A5000FC4F921718F00E94C4120895818360837E
:102A600042839F5F3396F5CFA3E0B0E0EAE3F5E160
:102A70000C940B338C018091930381110AC09E0149
:102A80002F5F3F4F43E66FEF0E94E60A8A818093F3
:102A90009303F8016481613069F08091930340E011
:102AA000662361F040E0623011F44091930380E0CE
:102AB00060E004C06091930340E080E00E941B1539
:102AC000F801848190E0019663E070E00E944E334B
:102AD00084832396E4E00C942733A3E0B0E0E3E79B
:102AE000F5E10C940D339091440590FF0AC09E01CE
:102AF0002F5F3F4F0E94E60A4B8169818A810E94C5
:102B00001B152396E2E00C942933CF93DF93EC015D
:102B1000E4E4F5E0438162818C810E946D158C8133
:102B20008F5F8C83DF91CF910895CF93DF93EC017A
:102B3000EC81F0E0EB58F24F4491E4E4F5E062817F
:102B400081810E946D158C818F5F8C83DF91CF9185
:102B50000895E4E4F5E080818E7F80830E94C90AB5
:102B6000EEE8F3E08281816082830E94C4120895BE
:102B70000E94C90A8091870381110AC081E0809375
:102B80008703809144058170809386030E94A91574
:102B90000895B0E0A0E0EFECF5E10C9405337C0182
:102BA0005B016A018091800301E010E08A3010F43B
:102BB0000AE010E0C1E0D0E0B501C701F6010995D7
:102BC000811104C021960C171D072CF4CDB7DEB778
:102BD000EAE00C942133CC9F9001CD9F300D300D55
:102BE000112490E080E045E34A95F1F7000001965A
:102BF00082179307C1F7E0CF1F93CF93DF93182F6E
:102C0000EB010E94F111209739F4812F0E94D1111C
:102C1000DF91CF911F9108958FE99FE00197F1F720
:102C200000C000002197EFCF10925A050E94E40ED9
:102C30002FEF84E39CE0215080409040E1F700C0FA
:102C4000000088E19AE00FB6F894A89580936000A0
:102C50000FBE90936000FFCFCF93C82F6FEF81110D
:102C600064E285E290E00E9457346FEFC11169E0A1
:102C700086E290E00E9457346FEFC11167E087E26F
:102C800090E00E945734CF910895CF93DF93C9EA23
:102C9000D1E060E0CE010E9457342196C11584E056
:102CA000D807B9F7DF91CF9108951F93CF93DF93A2
:102CB000122F8430E0F46830D0F44630C0F4C42FD2
:102CC000D0E0CC0FDD1F9CE0699FC00DD11D112409
:102CD00090E6899FC00DD11D1124632FCE018996E6
:102CE0000E945734612FCE018A960E945734DF919B
:102CF000CF911F910895AF92BF92CF92DF92EF9242
:102D0000FF921F93CF93DF9389E7C82E8EE0D82ED2
:102D1000D0E07601C0E014C0F50125913491412F37
:102D20006C2F8D2F0E94551682E0A80EB11C1F5FDC
:102D3000163091F78CE0E80EF11CCF5FC83019F027
:102D4000570110E0E9CFDF5F80E6C80ED11CD43018
:102D500001F7DF91CF911F91FF90EF90DF90CF901F
:102D6000BF90AF90089580E00E942C1660E088E24A
:102D700090E00E9457340E947B160E94451681E025
:102D80000E942C16089585E290E00E94333484322C
:102D900089F486E290E00E943334893059F487E266
:102DA00090E00E94333491E0873009F090E0892F61
:102DB0008170089580E0FCCF0F931F93CF93DF9332
:102DC000843030F5683020F5463010F5C42FD0E05F
:102DD000CC0FDD1F2CE0629FC00DD11D112430E609
:102DE000839FC00DD11D1124CE0189960E943334DA
:102DF000082F10E0102F0027CE018A960E9433344E
:102E00009801282BC901DF91CF911F910F9108954F
:102E100090E080E0F8CF462F783040F4663030F410
:102E2000843020F4672F0E94DC16089590E080E043
:102E30000895CF92DF92FF920F931F93CF93DF936A
:102E40006C0100914C0380914E02082BC3E0D0E04E
:102E500010E0FC2EC8010C2E02C0959587950A94AF
:102E6000E2F780FD0CC02197A0F7F12C8F2DDF91A8
:102E7000CF911F910F91FF90DF90CF900895B601F1
:102E80008C2F0E940B170E94CF0C019761F3EECF9D
:102E9000CF93DF93EC010E941917BE010E940B171C
:102EA0000E94CF0CDF91CF910895FC012481222351
:102EB000C1F0808191810E94481792959F70963051
:102EC00091F058F4925F9F70923058F4803F19F05F
:102ED00030F4883E30F481E008959A5FF4CF843F67
:102EE000D1F380E00895883EB0F3813FD1F7F3CF6E
:102EF000A6E0B0E0EEE7F7E10C940C3349835A8387
:102F000049815A819923A1F0222391F0CA010E949C
:102F10001917182F682F89819A810E94060E6981DE
:102F20007A81812F0E940B172696E3E00C942833B8
:102F3000CA010E94D20D182FF2CFB0E0A0E0E3EA60
:102F4000F7E10C9407336C017B0164E670E088E7DD
:102F50000E9447308C01E601EC0CFD1C17FD0BC0F4
:102F6000FE01849164E670E00E94B3308C012196EA
:102F7000CE15DF0599F70E94293181E00115110571
:102F800009F080E0CDB7DEB7E8E00C942333809100
:102F90004C0590914D05911103C091E0892708954A
:102FA000882369F062E070E087E79EE00E949D1749
:102FB000811103C080914C05089510924C058091B9
:102FC0004C05EBCF80914C0590914D05992361F014
:102FD000811108C062E070E085E79EE00E949D17C5
:102FE000811103C080914C05089581E080934C05C8
:102FF000F9CFB0E0A0E0EFEFF7E10C94FF32FC0175
:103000006280448081E08483E5E7FDE07490E4EF32
:10301000FDE0E491C0914705C695C158D0E0CC0FC2
:10302000DD1FCD2FDD27812C75E0972EAA24AA94D1
:10303000B12C55245A94E719EE2EF12C809192016F
:10304000881638F00E94C412CDB7DEB7E0E10C94C8
:103050001B33C82CD12C82E0861568F09C9CF001B3
:103060009D9CF00D1124EA5CFB4F80914505808307
:10307000809146058183411023C09C9CF0019D9C5A
:10308000F00D1124EA5CFB4F138212822091900113
:10309000C601820F911D9C01220F331F280F391F7B
:1030A0002C563C4F9C9CF0019D9CF00D1124EA5C39
:1030B000FB4F4281618180810E94E60A8394BECFEA
:1030C0009C9C80019D9C100D11240A5C1B4FF801F3
:1030D00083818823F1F081508383859DC001112471
:1030E000648170E00E94E932FB01FF27EB58F24F48
:1030F0008491E82FE719E59DC0011124B7010E94D2
:10310000E93280914705689FB0011124F80172836C
:10311000BDCF0E940034B5010E944E338C179D072D
:103120000CF0B4CFF2E0F61598F40E940034B5012B
:103130000E944E33F80180830E940034209146059E
:103140002695622F70E00E944E33280FF8012183EC
:103150009C9CF0019D9CF00D1124EA5CFB4F1282B7
:1031600080914705893C58F088EC9C9CF0019D9C1F
:10317000F00D1124EA5CFB4F8483838387CF843175
:10318000A0F784E1F2CFB0E0A0E0E9ECF8E10C9424
:10319000033349015A016B017C010E94D00A84016A
:1031A000A4016A2D7B2D88E090E00E94693494018F
:1031B0004A2D5B2DB601C70100E20E949933622FB0
:1031C00084E290E00E945734CDB7DEB7ECE00C9477
:1031D0001F33A3E0B0E0EFEEF8E10C940633082FC4
:1031E000E62EF42EC22E9091440590FF41C020910E
:1031F0004505281308C080914605861304C08091B8
:103200004705841729F08091900382608093900392
:10321000E92FE695E695AE2FB0E0A855BE4F8C910C
:1032200080938E039C7F943039F59E012F5F3F4F32
:103230004F2D6E2D802F0E94E60A4B8169818A8175
:103240000E941B1500934505E0924605F092470544
:10325000CC2071F02091440560914805709149059A
:10326000302FA70180914A0590914B050E94C31809
:103270002396E9E00C942233823019F4F09047054C
:10328000E1CF8630A1F1893091F18931D9F6E95148
:103290006E2F6170B62EE695F0E0E059F24F149172
:1032A000D12C60919201D61618F00E94C412CACF98
:1032B000D19EC001112470E00E94E932802FB1102C
:1032C00014C0860F20919001622F6D0D7727771F14
:1032D0009B01220F331F260F371F2C563C4F4F2DBB
:1032E0006E2D0E94E60AD394DCCF861BEBCF022F13
:1032F000A9CFE4E4F5E0438121E1421B08F440E07A
:1033000021E0628181810E94E9180895E4E4F5E0FA
:10331000438121E1420F08F44FEF21E06281818176
:103320000E94E9180895E4E4F5E0628121E1621B5E
:1033300008F460E021E0438181810E94E91808954A
:10334000E4E4F5E0628121E1620F08F46FEF21E02F
:10335000438181810E94E9180895E4E4F5E08181C8
:1033600021E04381628188500E94E9180895E4E4D5
:10337000F5E0818121E043816281885F0E94E91844
:10338000089580914805882319F08150809348055D
:1033900020914405309145054091460550914705DF
:1033A000609148057091490580914A0590914B05BF
:1033B0000E94C318089580914805833018F48F5FE8
:1033C000809348052091440530914505409146057C
:1033D00050914705609148057091490580914A05D3
:1033E00090914B050E94C3180895E4E4F5E085E050
:1033F000808311828FEF828383E683831482AEE819
:10340000B3E012968C911297836012968C9375811B
:1034100025E030E04FEF53E660E0868197810E941F
:10342000C3180895482F50E081E893E00E942A34A1
:10343000089590E080E00E944134863E9E4F19F44A
:103440000E94C316089580E00895B0E0A0E0EBE28A
:10345000FAE10C9408337901C82F880FDD0B411570
:103460005105A9F0FE0193E0EE0FFF1F9A95E1F7D9
:10347000E85EFE4F81819281855A9D4F208130E028
:103480004217530708F49A01A9010E942A34CE0179
:103490000E947332D82E8823D1F001151105B9F09E
:1034A00083E0CC0FDD1F8A95E1F7FE01E85EFE4F59
:1034B000438150E00417150708F4A801C85EDE4FE9
:1034C0006C817D81655A7D4FC7010E942A348D2D04
:1034D000CDB7DEB7E7E00C942433A4E0B0E0E3E737
:1034E000FAE10C940B336091D1027091D202809179
:1034F000D3029091D4020E94490A11E0643671050A
:103500008105910518F10E94C40B6E5F7F4F8F4FAC
:103510009F4F69837A838B839C8310E000E030E0C7
:1035200020E044E050E0BE016F5F7F4F83E00E94E7
:10353000251A182F882351F00E94650A6093D10242
:103540007093D2028093D3029093D402812F249659
:10355000E4E00C942733A5E0B0E0E1EBFAE10C9451
:1035600009337B0101E010E09E012B5F3F4F50E0EB
:1035700040E070E060E080E00E94251A182F882368
:1035800009F449C06091C9027091CA028091CB02CE
:103590009091CC020E94490A64367105810591051B
:1035A00048F464E070E08CE592E00E94AD0A9D81F1
:1035B000891789F104E010E09E012F5F3F4F50E032
:1035C00040E070E060E081E00E94251A082F64E08E
:1035D00070E08CE592E00E94AD0A11E09D819813A5
:1035E00010E0102331F10E94650A6093C9027093C4
:1035F000CA028093CB029093CC0289819A81AB81DD
:10360000BC818093C5029093C602A093C702B09379
:10361000C80211E00EC080915C0290915D02A09101
:103620005E02B0915F0289839A83AB83BC831111E0
:10363000E4CF8091C5029091C602A091C702B091DB
:10364000C802F70180839183A283B383812F2596DB
:10365000E6E00C942533B0E0A0E0E1E3FBE10C945C
:103660000533C82F7B01D42F69015801FB0160810C
:103670007181828193810E94490A643671058105B6
:10368000910510F4DD23C9F010E000E030E020E007
:10369000A501B6018C2F0E94251AC82F882339F066
:1036A0000E94650AF70160837183828393838C2F64
:1036B000CDB7DEB7EAE00C942133C1E0F8CFACE03F
:1036C000B0E0E5E6FBE10C940B33809105039091AB
:1036D0000603A0910703B091080389839A83AB8303
:1036E000BC838091E1029091E202A091E302B0914B
:1036F000E4028D839E83AF83B8878091E502909129
:10370000E602A091E702B091E80289879A87AB8729
:10371000BC874CE050E065E772E0CE0101960E9464
:103720001D3441E0892B09F440E00CE010E09E01DB
:103730002F5F3F4F69EE72E087E00E942B1B2C96B3
:10374000E4E00C942733A1E0B0E0E9EAFBE10C945B
:103750000B3380914C0589832091740290E041E005
:103760002817190609F440E001E010E09E012F5FE0
:103770003F4F6DED72E086E00E942B1B2196E4E046
:103780000C942733A1E0B0E0E8ECFBE10C940B33A0
:1037900080914903898341E090917302981301C09D
:1037A00040E001E010E09E012F5F3F4F69ED72E0C5
:1037B00085E00E942B1B2196E4E00C942733ABE0BC
:1037C000B0E0E5EEFBE10C940B3388E0E4E4F5E0D7
:1037D000DE01119601900D928A95E1F780918E039A
:1037E00090918F03A091900389879A87AB8741E0DE
:1037F0008B85811101C040E00BE010E09E012F5F3E
:103800003F4F65ED72E084E00E942B1B8111109206
:1038100090032B96E4E00C9427330F931F93CF93E0
:10382000DF93EC0144E050E060E672E00E941D345A
:1038300041E0892B09F440E004E010E09E016DECCA
:1038400072E082E00E942B1BDF91CF911F910F91BC
:103850000895A8E0B0E0EFE2FCE10C940D3366EED1
:103860007EEF90E080E00E94753460E082E090E0BE
:103870000E94573481E080934E0261E083E090E043
:103880000E94573460E074E184E090E00E94753457
:1038900060E086E090E00E9457346FEF87E090E0B0
:1038A0000E94573440E050E0BA0188E090E00E9466
:1038B000693460E084E290E00E94573460E087E180
:1038C00090E00E94573460E08CE090E00E94573412
:1038D00060E08DE090E00E94573419821A821B82CA
:1038E0001C821D821E821F82188648E050E068E11B
:1038F00070E0CE0101960E94473440E050E0BA01EA
:1039000080E290E00E94693480E00E942C160E94C0
:10391000B31640E050E0BA018FE090E00E946934B5
:1039200040E050E0BA0183E190E00E9469342896BB
:10393000E2E00C9429331F920F920FB60F921124DC
:103940002F933F934F935F936F937F938F939F93A7
:10395000AF93BF93CF93DF93EF93FF93D091E900A1
:10396000DF708091EC00C82FC17080FDC0E810921C
:10397000E9008091F000877F8093F00078940E94A6
:10398000FC0E1092E9008091F00088608093F000B6
:10399000CD2BCF70C093E900FF91EF91DF91CF91D4
:1039A000BF91AF919F918F917F916F915F914F9157
:1039B0003F912F910F900FBE0F901F9018951F925F
:1039C0000F920FB60F9211242F933F934F935F9353
:1039D0006F937F938F939F93AF93BF93EF93FF93D7
:1039E0008091E10082FF09C08091E20082FF05C062
:1039F0008091E1008B7F8093E1008091DA0080FF6D
:103A000024C08091D80080FF20C08091DA008E7F92
:103A10008093DA008091D90080FF9DC080E189BD4C
:103A200082E189BD09B400FEFDCF81E08093670586
:103A300080915905811109C00E94D8080E94790916
:103A40008091E20084608093E2008091E10080FF39
:103A500017C08091E20080FF13C08091E2008E7F4A
:103A60008093E2008091E20080618093E200809187
:103A7000D80080628093D80019BC85E080936705E8
:103A80008091E10084FF2BC08091E20084FF27C079
:103A900080E189BD82E189BD89B5982F917080FF51
:103AA000FBCF8091D8008F7D8093D8008091E1007A
:103AB0008F7E8093E1008091E2008F7E8093E20010
:103AC0008091E20081608093E20080916805882304
:103AD00009F447C084E08093670580916705809171
:103AE000E10083FF27C08091E20083FF23C0809123
:103AF000E100877F8093E10082E080936705109268
:103B000068058091E1008E7F8093E1008091E20062
:103B10008E7F8093E2008091E20080618093E200DA
:103B200042E060E080E00E9447098091F0008860F8
:103B30008093F000FF91EF91BF91AF919F918F9192
:103B40007F916F915F914F913F912F910F900FBE99
:103B50000F901F90189519BC109267051092590587
:103B600074CF8091E30087FD93E090936705B5CF14
:103B700078941F921FB61F9211248F939F93AF9337
:103B8000BF938091550590915605A0915705B0912E
:103B900058050196A11DB11D8093550590935605BA
:103BA000A0935705B0935805BF91AF919F918F9106
:103BB0001F901FBE1F9018959C014FB7F8948091DD
:103BC000550590915605A0915705B09158054FBFE6
:103BD000821B930B08952FB7F8948091550590910F
:103BE0005605A0915705B09158052FBF08958091B3
:103BF0004E05882319F00E94EB1D08950E94C40B06
:103C0000CB010895609144056695669570E04BE0A0
:103C100050E080E891E00E941034892B19F481E093
:103C200080938F030E94F71D9093890380938803EC
:103C3000809190038460809390030895909144054F
:103C400090FF3AC09370811138C0946090934405FE
:103C500080919003816080939003662391F020917E
:103C600044053091450540914605509147056091C6
:103C700048057091490580914A0590914B050E9435
:103C8000C318609144056695669570E04BE050E07E
:103C900080E891E00E941034892BB9F00E94C90A93
:103CA00081E080938B0320E04091470560914605B9
:103CB000809145050E94E91808958B3210F0986AAA
:103CC000C5CF880F880F982BC1CF0E94021EE8CF66
:103CD000E4E4F5E080818160808360E086958695EC
:103CE0000E941E1E08951092870380918603811101
:103CF0000E94681E0E94021E0895809144058695C8
:103D00008695815009F48AE261E00E941E1E0895A2
:103D100080914405869586958F5F8B3208F081E00F
:103D200061E00E941E1E08959091440590FF09C015
:103D300096959695981728F0961718F40E94881E65
:103D4000089561E00E941E1E0895A3E1B0E0EBEA31
:103D5000FEE10C9402338E01045F1F4F88E0D8010E
:103D60001D928A95E9F786E9C82E81E0D82EF12CBC
:103D7000E12CAA24A394B12C20EA822E21E0922ED9
:103D8000F60181916F018F3F09F442C0F894E82F4A
:103D9000E295EF70F0E021A18F70A50102C0440F01
:103DA000551F8A95E2F7CA01922F982B91A392A1F1
:103DB0008095892382A3789400C0EAE9F1E0712C10
:103DC00031E021912F3F09F4C4C0A22FA295AF701A
:103DD000B0E090968C9190E02F7002C095958795F9
:103DE0002A95E2F780FDB5C0832F782A330F8E160F
:103DF0009F0639F7F601319780818F3F11F00E94BD
:103E0000AD0B50EA5A95F1F7F801EE0DFF1D7082E7
:103E10008FEFE81AF80A94E0E916F10409F0B0CF40
:103E200048E050E0B80181EF92E00E941D34009715
:103E300041F028E0F801A1EFB2E001900D922A953F
:103E4000E1F70091FA0210E00A581C4F892B09F49F
:103E500082C081E0809353020E94EB1D9093520236
:103E600080935102F12CE0904E05EE2009F4CDC074
:103E700019821A821B821C82809180038A3008F08A
:103E80008EC04BEA5AE1BE016F5F7F4FC8010E94AE
:103E9000C915882309F4A8C04DE05CE1BE016F5F3D
:103EA0007F4FC8010E94C915882309F49DC04DE6C3
:103EB0005AE1BE016F5F7F4FC8010E94C915882378
:103EC00009F492C04FED5BE1BE016F5F7F4FC80107
:103ED0000E94C915882309F487C042EC5BE1BE014A
:103EE0006F5F7F4FC8010E94C915882309F47CC009
:103EF00043EA5BE1BE016F5F7F4FC8010E94C915B5
:103F0000882309F471C04FE55BE1BE016F5F7F4F0D
:103F1000C8010E94C915882309F466C01092800365
:103F20008091F90290E044E050E0BE016F5F7F4F66
:103F30008A589C4F0E941D3421E020935A02892BFD
:103F400009F044C0E12C8E2D8F296396EDE00C948E
:103F50001E3380E04ACFF0905302FF2009F482CF55
:103F600080915102909152020E94DC1D059708F445
:103F700079CF44E050E061EF72E0C8010E941D3447
:103F8000892B59F084E0E1EFF2E0D80101900D9225
:103F90008A95E1F71092530266CFF12CFBCF809106
:103FA0005402909155020E94DC1D843F914008F01C
:103FB00068CF80915A02882329F284E0FE0131966D
:103FC000DF011D928A95E9F710925A02E091F902F9
:103FD000F0E0EA58FC4F89819A81AB81BC818083F3
:103FE0009183A283B383AFCF809180038F3F31F061
:103FF0008F5F809380038A3008F492CF0E94EB1D7C
:104000009093550280935402D4CFC090F902D12CE2
:10401000F601EA58FC4F6F0184E0F801ACE5B2E02C
:1040200001900D928A95E1F764E070E08CE592E0F2
:104030000E94AD0A80935B0284E0E0E6F2E0D601E4
:1040400001900D928A95E1F780906402909065024C
:10405000A0906602B090670280915602909157023C
:10406000A0915802B091590288169906AA06BB067B
:10407000B1F08092560290925702A0925802B092EC
:1040800059020E94650A861A970AA80AB90A8092FC
:10409000ED029092EE02A092EF02B092F0028BE05D
:1040A000E8E6F2E0DE01119601900D928A95E1F7C3
:1040B0009981892F86958695DA80CB80BC800A8588
:1040C0001B8510927202112301F110FF0AC090FFAC
:1040D00057C09091440591609093440560E00E9420
:1040E0001E1E11FF06C020E04B2D6C2D8D2D0E9451
:1040F000E91812FF05C0002309F445C00E94021E02
:1041000013FF03C081E080938B038091730280933F
:104110004903809174028823C9F10E94E2178091BB
:104120007D0290917E02A0917F02B0918002409129
:10413000790250917A0260917B0270917C02009129
:1041400075021091760220917702309178020093E7
:10415000050310930603209307033093080340934D
:10416000E1025093E2026093E3027093E4028093D1
:10417000E5029093E602A093E702B093E802E3CE53
:104180000E94A915AECF0E94C90ABACF0E94C717D4
:10419000C6CFA8E0B0E0EFECF0E20C9401337C0174
:1041A000DC0114968C911497882309F4D1C021E086
:1041B0004C9111965C91119712966C9112971396EF
:1041C0007C91139715969C910E9478179C01F7019A
:1041D0004581442309F4A3C3BC017A95992761154D
:1041E000FFE47F0738F090E080E02F3F310509F0D1
:1041F00008F4C901FC013497B49718F08B970E9717
:1042000080F4E0910F03F0E0EE0FFF1FEC5EFC4F37
:10421000808191818F3F5FE7950719F00196918327
:104220008083C90197578038910508F086C3122F03
:10423000203108F08DC08FEF93E00E94333481115C
:1042400087C099EAE92EFF24F39411114EC0FE01B4
:10425000339686E0DF011D928A95E9F78AE0682EA1
:1042600087010F5F1F4FC7010E94333489831A8271
:10427000882309F46DC0813009F06EC06701B2E097
:10428000CB0ED11CC8010E9433348A83882309F4E1
:104290005FC09FEF980F9330B0F5E3E0EE0EF11C96
:1042A000C6010E9433348B83882309F451C01C82D9
:1042B0008E010F5F1F4FD8012C91222389F22130EC
:1042C00009F084C011969C91119712968C919130AF
:1042D00009F044C00E5F1F4F70E060E0893311F4B5
:1042E00060E570E00E94FC153FC0E11484E0F80630
:1042F00079F1C7010E943334811101C011509FEF41
:10430000E91AF90AA2CF7601843091F602E010E0B2
:104310007601FFEFEF1AFF0AC6010E943334E1E095
:10432000F0E0EC0FFD1FE00FF11F8083882381F088
:104330008C3741F4E2E0F0E0EC0FFD1FE00FF11FDD
:104340001082B6CF0F5F1F4F67010730110501F7CD
:104350002896EEE00C941D337801AACF923039F400
:104360000E5F1F4F0E94F1110F5F1F4FA4CF9330BC
:1043700029F40E5F1F4F0E94D111F6CF943019F02F
:104380000F5F1F4FF1CF0E5F1F4F30E020E0B801ED
:104390006F5F7F4FF80141818053990B8A309105FF
:1043A00050F02150310900F38FE99FE00197F1F7B8
:1043B00000C00000F6CF629EF001639EF00D112454
:1043C0009C012E0F3F1F842F8B01E1CFE22FF0E0E5
:1043D000E358FE4F7490822F86958695869590E0DF
:1043E000FC01E359FE4FC4902770D12C022E02C06D
:1043F000D594C7940A94E2F7A1E0CA22DD24FC0117
:10440000E35AFE4FA490B12C022E02C0B594A7949B
:104410000A94E2F7B1E0AB22BB24FC01E35BFE4F60
:104420008490912C02C0959487942A95E2F7E1E05C
:104430008E229924C114D10419F081EE0E94F11149
:10444000A114B10419F086EE0E94F111F9E370E0B5
:1044500060E07F1202C060E570E0872D0E94FC15CD
:10446000A114B10419F086EE0E94D111C114D10437
:1044700019F081EE0E94D1118114910409F474CFD6
:1044800070E060E08CE22ECFD70116968C91807F91
:1044900009F47DC2F90172C261157F41D8F3C901E7
:1044A000805A9245809708F472C2F90168C28091DF
:1044B000440580FF1EC0282F2E7F20934405309195
:1044C000450540914605509147056091480570911A
:1044D000490580914A0590914B050E94C3180E949E
:1044E000C90A809190038160809390030E94C41256
:1044F0002FCF81608093440561E0869586950E9468
:104500001E1E26CF4DE75EE168E87EE10E94C30AE9
:104510001FCF48E85EE16DE77EE1F8CF4DEA59E153
:1045200067EB79E1F3CF47EB59E16DEA79E1EECF43
:1045300043E959E160EA79E1E9CF40EA59E163E909
:1045400079E1E4CF49E759E166E879E1DFCF46E870
:1045500059E169E779E1DACF41EC59E16BED79E1B5
:10456000D5CF4BED59E161EC79E1D0CF61E081E04D
:10457000C6CF65E082E00E94941EEACE68E086E045
:10458000FACF6EE089E0F7CF64E18FE0F4CF67E126
:1045900085E1F1CF61E088E1B2CF62E289E1EBCF62
:1045A00061E083E2ACCF6AE285E2E5CF27375CE7E2
:1045B0003507A9F128373C47D1F1D7010D911C915E
:1045C000C8014423F1F10E941917D82E682FC801A1
:1045D0000E94060EB8018D2D0E940B170E94CF0C71
:1045E000182FB82EF7012581368132953F70892F1B
:1045F00082958F70C82ED12C8C3008F059C0F601EE
:10460000E650FB4C0C946233442349F081E00E9455
:104610006D0E43E062E081E00E94400E99CE81E0A1
:104620000E94600EF6CF442311F082E0F0CF82E0CA
:10463000F7CF6FEF7FEF90E080E00E9475340E942B
:1046400014160E94D20DD82EC5CF092F0F70907F5F
:1046500011F00295007F812F2223C9F0002369F019
:1046600090E2910F983010F011110BC080915A0513
:10467000082B00935A050E94910E812F0E94F11180
:1046800017C080914502082B00934502F4CF0E9489
:10469000D111002369F00095105E183010F0B110B0
:1046A00038C080915A05082300935A050E94910E44
:1046B00048E0C41AD10854E0C516D10410F40E9491
:1046C0009C0A20E0D7014C9111965C9111971296AB
:1046D0006C91129713967C91139714968C91149762
:1046E00015969C910E947817F7018581882309F41B
:1046F0002FCE0E94EB1D90937F0380937E038091C9
:104700008103882309F424CE109281030E94731E32
:104710001FCE80914502082300934502C7CF892F01
:104720008F70907F903211F08295807FF1E0BF1200
:104730000EC0222331F0363008F0BACF0E94C711E4
:10474000B7CF353008F0B4CF0E94BC11B1CF2223CF
:1047500019F0332399F391CF3323B1F3193349F48B
:104760002FEF37EE43E0215030404040E1F700C0EA
:104770000000812F0E94D1119BCF892F8370A1F55A
:10478000211196CF812F829586958770880F880F8B
:10479000412F4F70082E01C0440F0A94EAF7212FD1
:1047A000207114FF07C02FE030E001C0220F8A956E
:1047B000EAF72095969596959370923081F0822F26
:1047C000842B933030F480914E02913029F0242BC9
:1047D00082230E94790E6CCF842B822BFACF242B5C
:1047E00080914E028227F5CF8695222311F0892FE2
:1047F0008170882309F45CCF812F8295869587701C
:10480000880F880F412F4F70082E01C0440F0A9463
:10481000EAF7212F207114FF07C02FE030E001C01C
:10482000220F8A95EAF72095969596959370923087
:1048300081F0822F842B933030F480914C0391309F
:1048400029F0242B82230E943D0E32CF842B822B11
:10485000FACF242B80914C038227F5CF092F0F70BC
:10486000222329F0802F0E946D0E812F67CF812F88
:104870000E94BC11802F0E94600E1ACF812F51EF31
:10488000151789F1511750F0A0EF1A17B9F022232C
:10489000B1F13111F2CE892F8F7129C0B2EF1B1700
:1048A00049F1E3EF1E13F3CF80E0222361F29F7101
:1048B00081E001C0880F9A95EAF7C5CF222379F0ED
:1048C000353008F0F5CE292F2F7181E090E001C03E
:1048D000880F2A95EAF790914C038927B4CF363098
:1048E00008F0E6CEF0CF892F8F71222321F20E94AB
:1048F0006D0EDECE892F8F712223C9F3BCCF3323F7
:1049000059F0893309F035CFFFEF27EE33E0F1504E
:1049100020403040E1F72BCF892F8F71ACCF8091B1
:104920005A058272F901E052F847E531F10508F0C5
:104930003DCEEA5FFA4C0C946233D70111968C910C
:104940001197809350038C9180934F0380E2809362
:10495000100130934E0320934D03C90190528115ED
:10496000904208F491CDC90190548115904108F00E
:1049700093CDF7018681807FF90109F0FF27ED33A0
:10498000F10560F5E350FE4FE491E0931001273705
:10499000ECE73E0709F43ACE2837FCE73F0709F475
:1049A00042CE21309CE7390709F449CE2330ACE7E9
:1049B0003A0709F43ECE21153C4709F0FECD10928E
:1049C0005A050E94E40EEFEFF4E32CE0E150F040D2
:1049D0002040E1F700C000000E94380A27375CE75A
:1049E000350709F411CE28378CE7380709F41DCEB6
:1049F000D8CFCF93DF9380912402807F09F04DC000
:104A000080912302882309F448C0E091AA055091BF
:104A10007105C0911F02D0911E0260912002709119
:104A2000210247E05E17C9F18E2F90E0E49FF0016C
:104A30001124EE58FA4F2481222391F1489FF0016E
:104A4000499FF00D1124DF01AE58BA4F11962C91F9
:104A500011972C1325C02C912D1322C015962C9143
:104A6000159721111DC012962D913C91261B370BD5
:104A7000283C3105A8F4809124028F7080618093D6
:104A80002402E858FA4F80818F70806180838EE124
:104A900092E00E94C9200E94C80DDF91CF91089535
:104AA000FC013196E770BECFA4E1B0E0EAE5F5E2A3
:104AB0000C9403338C0186E0F801DE011F9601900F
:104AC0000D928A95E1F7F8018481E5809EE1A92E97
:104AD00092E0B92E90912202911128C0882319F1F9
:104AE000EE20F1F0C8010E945517F82E8823C1F07E
:104AF00087E0F801D50101900D928A95E1F7809148
:104B00002202813031F480911E0290911F020E9496
:104B100048170E94F9248F2D6496ECE00C941F3303
:104B2000C8010E94C920FF24F394F5CFD080C18032
:104B300082809380F0902302209120023091210204
:104B4000A401421B530BFF2009F4D9C0483C510576
:104B500008F092C08823F9F290911F0280912402FC
:104B6000282F207F09F056C0C91214C090911E0250
:104B7000D91210C0E11048C08F7080618093240268
:104B80008EE192E00E94C92080912402F801868380
:104B9000F12CC1CFE11038C06C2D8D2D0E94B908C9
:104BA0006C2D8D2D0E94B908E82E8111F1CFDF8682
:104BB000C88A8F8598890E944817292F22952F70BF
:104BC000243058F49F70223088F0992399F0F8012E
:104BD0009681907F79F4FE2C9ECF2A5F2F70223031
:104BE00068F0C8010E94C920EF2CF5CF992311F07D
:104BF000882389F3805E883070F3F3CF803F58F3C9
:104C0000815F833070F7E7CF8091240281608093C9
:104C10002402BECFC91207C090911E02D91203C050
:104C2000EE2009F48DC0C8010E945517882309F4AD
:104C300077CFEE2009F474CF80912402803288F07F
:104C400020911E0230911F02398728879B868A8611
:104C5000909122029C871D868E87CE0108960E9425
:104C6000C92087E0F801AEE1B2E001900D928A958B
:104C7000E1F70E94F92457CF90912402292F207F39
:104C800051F48EE192E00E94C92087E0F501119273
:104C90008A95E9F77DCF882309F43DCF80911F02E3
:104CA0008C1110C080911E02D8120CC0E1100AC0F5
:104CB0009683C8010E94C92087E0F50111928A9568
:104CC000E9F729CFC8010E945517882309F428CF96
:104CD000EE2009F425CF80912402803210F2209139
:104CE0001E0230911F023A8329839C828B8290910D
:104CF00022029D831E828F83CE010196B0CF483C55
:104D00005105D0F6882309F40ECFFE2CEE2009F4CD
:104D100007CF80911F028C1120C080911E02D812F3
:104D20001CC08091240280FD0FC0982F907F61F0FD
:104D30008683903F31F0982F907F905F8F70892B02
:104D40008683C8010E94C92087E0F801AEE1B2E085
:104D500001900D928A95E1F7DECEC8010E945517A9
:104D600081117FCF80912402816080932402C80149
:104D70000E94C920D0CEABE1B0E0E1ECF6E20C94A9
:104D80000B334E8B5F8B688F798F8A8F9B8F192F98
:104D90009111109245021D8A86E0FE017696DE0191
:104DA0001F9601900D928A95E1F70A8D002341F03C
:104DB00021E04F85588969897A89C8010E9478174E
:104DC0000B8B1C8B87E0FE013F96DE01189601904D
:104DD0000D928A95E1F7CE0108960E945425811123
:104DE0002AC087E0FE013896DE01119601900D92EF
:104DF0008A95E1F78C858823F1F02091710530E0E8
:104E0000C9010196877099274091AA05481719068C
:104E1000E9F097E0929FD001939FB00D1124AE5816
:104E2000BA4FFE01319601900D929A95E1F7809369
:104E300071050E94C80D17E08091AA059091710537
:104E4000891314C06B96E4E00C94273310925A0532
:104E50000E94E40E109271051092AA0587E0EEE11F
:104E6000F2E0DF011D928A95E9F7E5CF819FC0014D
:104E700011248E589A4F0E945425882319F380914B
:104E8000AA0590E00196877099278093AA05D4CF50
:104E9000A6E0B0E0EEE4F7E20C940B330E94EB1DC9
:104EA0008C0180914F02909150028017910781F000
:104EB00019821A820E94EB1D682F49815A81792F2D
:104EC00080E090E00E94BB261093500200934F02B6
:104ED0002696E4E00C9427331F921FB61F921124EC
:104EE0008F939F93AF93BF9380915405811113C00B
:104EF0008091550590915605A0915705B0915805A0
:104F00004196A11DB11D8093550590935605A09320
:104F10005705B0935805BF91AF919F918F911F9006
:104F20001FBE1F901895CDB7DEB7C958D1090FB66F
:104F3000F894DEBF0FBECDBF85B7806885BF85B74B
:104F4000806885BF84B7877F84BF0FB6F894A89523
:104F500080916000886180936000109260000FBEB5
:104F600080E890E00FB6F894809361009093610020
:104F70000FBE8FE79BE09093E3018093E2010E94D4
:104F8000D8080E9479098091E20084608093E20051
:104F90007894809167058823A1F01091E9001F7033
:104FA0009091EC00892F817090FD80E8182B109271
:104FB000E9008091E80083FD0E94FC0E1F701093B1
:104FC000E90082E084BD93E095BD9AEF97BD8093A0
:104FD0006E001092ED021092EE021092EF0210920B
:104FE000F0020E94C316811102C00E94B31688EC21
:104FF00090E01091E300111F1127111F61F4AFE33E
:10500000BCE91197F1F700C00000019791F70E94E9
:10501000D8081092670510934E0510934F05109312
:105020000401112309F46FC010928E018BE180936B
:105030008F010E948731809104018091040194E0E6
:10504000811190E09093FA0284E0891B8093F90229
:1050500084E90E94AD0B86E60E94AD0B87E90E94B1
:10506000AD0B86EC0E94AD0B0AE911E0F8018191CD
:105070008F018F3F11F00E94AD0BF1E0003A1F0746
:10508000A9F788E0E6E7F3E0DF01282F1D922A95D3
:10509000E9F7E1EFF2E0DF011D928A95E9F70E945E
:1050A000191A811102C00E94291C82E090E00E941E
:1050B00033348093FC0284E090E00E94413490936A
:1050C0005305809352050E94A51EBFEFE6E7F1E06D
:1050D000B150E040F040E1F700C000000E94A51E82
:1050E00080914F05E4E08111E0E0F0E0EA58FC4FE8
:1050F000808181FF0EC06FEF7FEF90E080E00E9423
:1051000075340E94380A8BE180938E0180938F0161
:1051100092CF83E090E00E9433340E94790E109287
:10512000710380E88093AB050E9441306BE070E032
:1051300080E592E00E949D178823E9F08091710339
:1051400065E070E081FD41C18BE492E00E949D1713
:10515000882389F06DE070E089E392E00E949D175A
:10516000882349F00E947C0E81E080934D05809356
:105170004C05109272038091FB02811179C00E944C
:10518000191A811104C00E94291C0E94F51988E097
:1051900090E00E943B344B015C0184E290E00E946D
:1051A0003334282F30E040E050E060E070E080E0F1
:1051B00090E000E20E947E33282939294A295B29A0
:1051C0002093440530934505409346055093470589
:1051D000609348057093490580934A0590934B0569
:1051E000809190038360809390032C7F89F50E94C7
:1051F000F51988E090E00E943B346B017C0184E269
:1052000090E00E943334282F30E040E050E060E02E
:1052100070E080E090E00E947E33B22FA32FF42F45
:10522000E52F5B0197018601BC29A12BFE29E32B09
:10523000B0934405A0934505F0934605E0934705D8
:1052400060934805B092490580934A0590934B05B9
:105250000E94D00A0E94C90A8091440580FF05C0BF
:1052600060E0869586950E941E1E81E08093FB0279
:1052700080914E05811102C00E948A3182E19AE13B
:1052800090937F0180937E018AE290E090937A016F
:10529000809379018AE490E090937D0180937C0172
:1052A00085E091E09093510580935005E4E62E2E21
:1052B000312C412C512C8091670570E4F72E00E1D0
:1052C00012E1853009F4BFC00E94A51E5DEFE52EF6
:1052D00052E0F52E66E7C62E63E0D62E25E033E0D9
:1052E000D601F70191918D912E173F0709F4B9C0AE
:1052F0009817C1F380904E0510E077247394D6017F
:105300000D916D01F70191907F01901609F44EC047
:10531000B12CAA24A3949026892D8A2109F43EC099
:105320008820E1F1CF57DF4FB882C158D040CE5727
:10533000DF4F1883C258D0400E94EB1DCD57DF4F7E
:1053400099838883C358D040CB57DF4F7882C558A4
:10535000D04091E0802F8A2109F490E0CA57DF4FB6
:105360009883C658D040CF57DF4F4881C158D040AE
:10537000CE57DF4F5881C258D040CD57DF4F68819C
:10538000C358D040CC57DF4F7881C458D040CB575A
:10539000DF4F8881C558D0400E94BB26B394AA0C29
:1053A000F6E0BF12B9CFF701319700831F5F1830C5
:1053B00009F0A5CF0E94C40B609305037093060308
:1053C000809307039093080350C086E492E0BECE1A
:1053D00080916705843039F10E94B8150E94C71783
:1053E0001092540528E130E00FB6F894A895209368
:1053F00060000FBEF092600083B7817F846083BF3E
:1054000083B7816083BF7894889583B78E7F83BF8D
:105410000FB6F894A8958091600088618093600031
:10542000109260000FBE80916605882361F00E9493
:10543000A51EE6E7F3E08191811102C68EE793E0B5
:105440008E179F07C1F780916705853009F4C0CF9B
:1054500010925A050E94E40E0E949C0A0E94731E3C
:1054600033CF981347CF0E94482780914E05882359
:1054700009F4AEC0C0901403D09015030D2C000C9D
:10548000EE08FF0810910F01212F30E0E4E1F3E076
:1054900081E090E03296281739070CF098C16091AE
:1054A00010037091110380911203909113030E94D5
:1054B000490A4B015C0129EC82169104A104B10454
:1054C00014F180910F0390E0019669E170E00E9471
:1054D0004E3380930F03880F991FFC01EC5EFC4F45
:1054E00011821082812F183108F087E18F5F80933D
:1054F0000F010E94650A609310037093110380935B
:1055000012039093130332E0C316D104E104F104B3
:105510000CF469C1A0E6BAEEA70196010E94AA3474
:105520006B017C0148EC149F90011124032E000CA8
:10553000440B550B280D391D4A1D5B1DA5E0B0E03D
:105540000E94AA349B01AC01C701B6010E94BD3480
:1055500069017A0161EFC616D104E104F1042CF06F
:1055600030EFC32ED12CE12CF12C60910B03709104
:105570000C0380910D0390910E030E94490A4B0188
:105580005C0185E688169104A104B10484F00E94B0
:10559000650A60930B0370930C0380930D03909343
:1055A0000E038091490380930A03C092090310916E
:1055B0000A03A0910903A11BBB0BA50194010E9442
:1055C000B534A20191010E948B34120F109349034C
:1055D00080918F03882309F465C080918E03E09148
:1055E0004405E695E695E81BE0938A03823009F0CE
:1055F000FEC0F0E0E459FD4FE4910E2F10E025E9E4
:10560000C22E25E1D22E80918B03882361F0109267
:105610008B030E94F71D9093890380938803109257
:105620008D0310928C030E94F71DE0918803F09186
:1056300089039C012E1B3F0B2F3F3F4798F520917C
:1056400048032223B1F01092480320914603309181
:105650004703821B930B8F3F9F4758F4205D3A48C6
:105660003093470320934603809190038860809392
:105670009003E0908C03F0908D03E00FF11FF09306
:105680008903E093880388E893E0F6010995809107
:105690008C0390918D03892B29F4EF2819F081E078
:1056A0008093480380914D0581110DC10E949C0A91
:1056B00090917503891721F0809375030E94650A04
:1056C00080916705843009F4F6C2809181038111CD
:1056D0000EC080917E0390917F030E94DC1D813675
:1056E0009A4E28F00E94B81581E080938103809142
:1056F0004E05882309F4DFCD609182037091830306
:1057000080918403909185030E94490A653F71400E
:105710008105910508F4CFCD8CE0C957DF4F888310
:10572000C758D040909180039A3008F0C4CD1A82B7
:1057300019828A8311E01B831C8263E070E0CE0132
:1057400002960E94AD0A8983109360011092730142
:1057500010E000E030E020E044E050E0BE016F5F88
:105760007F4F88E00E94251A882309F4A4CD30E0F9
:1057700020E041E050E061E873E089E00E94251AF2
:10578000882309F498CD30E020E041E050E0BE01EC
:1057900069577F4F8AE00E94251A882309F48BCD30
:1057A00030E020E050E040E070E060E08BE00E94FC
:1057B000251A882309F47FCD0E94650A609382032D
:1057C00070938303809384039093850374CD408109
:1057D0005181052E000C660B770BC40ED51EE61EFC
:1057E000F71E019657CEC12CD12C7601BECE863045
:1057F00059F4F0E0E759FD4FE4910E2F10E095E8E1
:10580000C92E95E1D92EFFCE893061F4E695F0E0FE
:10581000EA59FD4FE4910E2F10E08EEDC82E84E181
:10582000D82EF1CE8F3061F4E695F0E0ED59FD4FC2
:10583000E4910E2F10E0B3E5CB2EB4E1DB2EE3CEE6
:10584000853159F4F0E0E05AFD4FE4910E2F10E05D
:10585000AEECCA2EA3E1DA2ED6CE08E210E07CE44C
:10586000C72E73E1D72E883109F4CDCE833249F4A7
:10587000EEE5F2E005911491F4E3CF2EF5E1DF2E91
:10588000C2CE04EF11E06FE0C62E63E1D62E843263
:1058900009F4B9CE00ED17E052E3C52E5AE0D52E3B
:1058A000853209F0B0CE8E2F63E00E943433E92FA9
:1058B000F0E0E55AFD4FE4910E2F10E0E9EFCE2E17
:1058C000E7E1DE2EA0CE80917303909174030E94D5
:1058D000DC1DC29788F00E94EB1D909374038093A7
:1058E000730380E00E94A70880918103882391F1CF
:1058F0000E947C0E0E94C7178091AC059091AD0567
:10590000892B09F4D3CE80914D05882309F4CECE9E
:10591000809172038111CACE0E94E2172091AC05DA
:105920003091AD052115310509F4C0CE80E041E08C
:1059300050E0082F10E07A01082E02C0EE0CFF1C88
:105940000A94E2F7B9016E217F21672B09F0EDC0BF
:105950008F5FEFCF0E94E2179090490380E00E9492
:10596000A708E92CE694E694F12CC0904A03D09065
:105970004B038E010F5F1F4FD80190E080E038018C
:10598000B6016051754F8E159F050CF4B0C05701DC
:1059900040E75AE020EF39E0C701FB01E80FF91FAB
:1059A000A491FA01B491F9018490F801E80FF91F6C
:1059B000AB238A2A808201964F5F5F4F2F5F3F4F54
:1059C0008038910554F3C8010E94640881E00E9468
:1059D000A708D80190E080E0B6016059774F8E1596
:1059E0009F050CF48BC040EF57E020E737E0C7017C
:1059F000FB01E80FF91FA491FA01B491F901849019
:105A0000F801E80FF91FAB238A2A808201964F5FC5
:105A10005F4F2F5F3F4F8038910554F3C8010E94BC
:105A2000640882E00E94A708D80190E080E0B601F7
:105A300060517A4F8E159F050CF467C040E755E022
:105A400020EF34E0C701FB01E80FF91FA491FA0130
:105A5000B491F9018490F801E80FF91FAB238A2A69
:105A6000808201964F5F5F4F2F5F3F4F80389105D7
:105A700054F3C8010E94640883E00E94A70890E0E4
:105A800080E0A60140595C4F8E159F050CF444C080
:105A900020EF32E080E792E0FA01EA0DFB1D64910D
:105AA000F9011491FC017491D301AA0DBB1DE62FDD
:105AB000E123E72BEC93FFEFAF1ABF0A2F5F3F4FB5
:105AC000019660E8A616B1043CF3C3010E94640885
:105AD000892D6FE00E9434339FEFC91AD90AC80E8E
